:100000000C942A000C9447000C9447000C94470071
:100010000C9447000C9447000C9447000C94470044
:100020000C9447000C9447000C9447000C94470034
:100030000C9447000C9447000C9447000C94470024
:100040000C9447000C9447000C9447000C94470014
:100050000C94470011241FBECFE5D8E0DEBFCDBF12
:1000600011E0A0E6B0E0E2E1F6E202C005900D92F8
:10007000AA3AB107D9F711E0AAEAB1E001C01D928E
:10008000A33CB107E1F70E9449000C9407130C94BC
:1000900000000E9475000E946F00FDCF8C5F0E94DF
:1000A0003B06089583E00E943B06089582E00E948B
:1000B0003B06089580E00E943B06089581E00E947F
:1000C0003B0608950E94340681E460E00E94F20439
:1000D000089580E061E440E00E941A05089580E000
:1000E00061E441E00E941A05089580E061E441E086
:1000F0000E947F040895873091F1883084F4833022
:1001000031F184303CF48130E1F08230F4F4882322
:10011000D1F037C08530F9F08630FCF41AC08B304E
:1001200031F18C302CF48930F1F08A30F4F419C0BC
:100130008D3009F18D30ECF08E30F9F08F3009F50B
:100140001EC080E608958CEF08958AED089582EF31
:10015000089586E6089586EB08958EEB089580EE67
:1001600008958EEF089586EF08958AEF08958EE33F
:1001700008958CE908958AE708958EE908958EE838
:10018000089580E008950F931F93CF93DF938C0120
:1001900080E00E94330AC0E0D0E00CC0F801EC0F10
:1001A000FD1F80810E947B00482F80E06C2F0E9401
:1001B000D1092196F80101900020E9F73197E01B61
:1001C000F10BCE17DF0750F3DF91CF911F910F9105
:1001D0000895DF93CF93CDB7DEB7A0970FB6F8940D
:1001E000DEBF0FBECDBFDE011196E8E7F0E098E07C
:1001F00001900D929150E1F7DE011996E0E7F0E0F1
:1002000098E001900D929150E1F7DE015196E8E6F9
:10021000F0E098E001900D929150E1F7DE015996DF
:10022000E0E6F0E098E001900D929150E1F78B3418
:10023000C9F08C341CF48834D9F405C08D3469F0CD
:100240008E34B1F405C080E0BE016F5F7F4F0EC0F9
:1002500080E0BE01675F7F4F09C080E0BE016F5E36
:100260007F4F04C080E0BE01675E7F4F0E94140A8A
:10027000A0960FB6F894DEBF0FBECDBFCF91DF9131
:1002800008950E94570A08950F931F93182F062F61
:100290000E945306110F812F80560E945F06802F07
:1002A0000E945F060E945306812F8F550E945F06B1
:1002B0000E946D06182F0E947406812F1F910F91C6
:1002C0000895FF920F931F93182F062FF42E0E946C
:1002D0005306110F812F80560E945F06802F0E94C7
:1002E0005F068F2D0E945F060E94740680E49CE9E1
:1002F0000197F1F71F910F91FF9008950E944F060B
:10030000089508950E9465090895DC01CB0160E01D
:100310000E949B0808950E94BA090895813049F00F
:10032000813028F0823039F0833061F406C084E0F7
:1003300005C085E003C086E001C087E064E40E9458
:100340008D0508950895813049F0813028F082307C
:1003500039F0833061F406C080E005C081E003C05D
:1003600082E001C083E064E40E948D050895089551
:10037000813049F0813028F0823039F0833071F4D7
:1003800009C084E003C085E001C086E064E40E9407
:10039000FB05089587E064E40E94FB0508950F9330
:1003A0001F93DF93CF93CDB7DEB760970FB6F89466
:1003B000DEBF0FBECDBFDE011196E0E8F0E080E1C8
:1003C00001900D928150E1F700E0802F0E948E0194
:1003D000882361F410E0812F0E94A301882341F15A
:1003E0001F5F1430C1F7802F0E94B8010F5F0430E7
:1003F00061F700E0802F0E94B80110E0812F0E9479
:10040000A301882361F4E02FF0E0EE0FFF1FEE0F51
:10041000FF1FE10FF11DEC0FFD1F81810AC01F5F5F
:10042000143061F7802F0E94B8010F5F043011F77C
:100430008FEF60960FB6F894DEBF0FBECDBFCF91A1
:10044000DF911F910F91089584E064E441E00E94E0
:100450007F0485E064E441E00E947F0486E064E478
:1004600041E00E947F0487E064E441E00E947F0451
:1004700084E064E441E00E941A0585E064E441E020
:100480000E941A0586E064E441E00E941A0587E0B4
:1004900064E441E00E941A0580E064E440E00E94C8
:1004A0007F0481E064E440E00E947F0482E064E431
:1004B00040E00E947F0483E064E440E00E947F0407
:1004C00080E064E441E00E941A0581E064E441E0D8
:1004D0000E941A0582E064E441E00E941A0583E06C
:1004E00064E441E00E941A05089548B390E09C013D
:1004F000207F3070359527954770422B48BBC09AB6
:10050000C29A40EE5EE2FA013197F1F7C298FA0121
:100510003197F1F728B333E0880F991F3A95E1F747
:100520002770282B28BBC29ACA010197F1F7C298FD
:10053000CA010197F1F7089548B390E09C01207F2C
:100540003070359527954770422B48BBC098C29AAA
:1005500040EE5EE2FA013197F1F7C298FA01319765
:10056000F1F728B363E0880F991F6A95E1F72770C8
:10057000282B28BBC29ACA010197F1F7C298CA0179
:100580000197F1F708958FEF87BB88EC90E020E9A1
:1005900031E0F9013197F1F70197D9F782E00E9434
:1005A0009C0288E20E949C028CE00E949C0286E0F1
:1005B0000E949C0281E00E949C0280E29EE40197DE
:1005C000F1F70895CF93DF93EC0102C00E9475020A
:1005D00089918823D9F7DF91CF910895662339F463
:1005E000803168F48F7080680E949C0208956130A9
:1005F00031F4803120F48F70806C0E949C02089549
:10060000CF93DF93EA01662329F4803158F48F7089
:10061000806806C0613031F4803120F48F70806CC6
:100620000E949C02CE010E94E202DF91CF910895C8
:1006300081E00E949C0280EE9EE20197F1F780E843
:100640000E949C020895883018F461E40E94FB0522
:100650000895883020F461E440E00E941A0508956E
:10066000883020F461E441E00E941A0508951F9348
:1006700010E0812F61E441E00E947F041F5F183089
:10068000C1F71F91089590E0A0E0B0E0BC01CD015A
:100690000E94351020E030E041EE54E40E94050F46
:1006A0002DEC3CEC4CEC5CE30E94DE0DAB01BC019C
:1006B00081E00E945008089581E04DEC5CEC6CEC08
:1006C0007CE322E00E94C6070895882319F0813058
:1006D000B1F40BC080E064E440E00E941A0581E0C0
:1006E00064E440E00E941A05089582E064E440E07A
:1006F0000E941A0583E064E440E00E941A05089510
:10070000882319F0813081F515C0662319F0613016
:1007100059F507C080E064E441E00E941A0581E0D9
:1007200014C080E064E440E00E941A0581E064E4C3
:1007300041E00DC0662319F06130B1F40BC082E0D6
:1007400064E441E00E941A0583E064E440E00E9412
:100750001A05089582E064E440E00E941A0583E0EF
:1007600064E441E00E941A05089584E461E00E9477
:10077000F204089580E008951F93162F882319F03E
:10078000813079F404C00E94530680E403C00E94C3
:10079000530681E40E945F06812F0E945F060E943B
:1007A00074061F9108950E944F060895883020F422
:1007B00063E40E948D05089508951F9310E0812F32
:1007C00063E441E00E947F041F5F1830C1F71F916E
:1007D0000895EF92FF920F931F937B018C0180E0AD
:1007E00040E050E060E070E021E00E94C60780E059
:1007F000B801A7010E9450081F910F91FF90EF9040
:100800000895883018F461E40E94FB05089588304B
:1008100020F461E440E00E941A050895883020F435
:1008200061E441E00E941A0508951F9310E0812FB2
:1008300061E441E00E947F041F5F1830C1F71F91FF
:1008400008958730B9F1883070F4833039F18430FD
:1008500028F48130E9F08230F0F417C0853021F1BE
:10086000863028F51EC08B3089F18C3028F4893011
:1008700039F18A3040F521C08D3071F18D3048F169
:100880008E3069F18F3089F52DC082E46CEF2FC076
:1008900082E460E62CC082E46AED29C082E462EF63
:1008A00026C082E466E623C082E466EB20C082E4D0
:1008B0006EEB1DC082E460EE1AC082E46EEF17C0DA
:1008C00082E466EF14C082E46AEF11C082E46EE352
:1008D0000EC082E46CE90BC082E46AE708C082E4DF
:1008E0006EE905C082E46EE802C082E460E00E9426
:1008F000D205089582E461E00E94F2040895382F41
:10090000623429F1633420F4613409F06AC006C00E
:100910006334B1F1643409F064C04BC0413059F420
:100920002AB381E090E002C0880F991F3A95E2F760
:10093000282B2ABB08952AB381E090E002C0880FDB
:10094000991F3A95E2F7809582238ABB089541303A
:1009500059F427B381E090E002C0880F991F3A95BF
:10096000E2F7282B27BB089527B381E090E002C06F
:10097000880F991F3A95E2F78095822387BB0895E7
:10098000413059F424B381E090E002C0880F991FF0
:100990003A95E2F7282B24BB089524B381E090E038
:1009A00002C0880F991F3A95E2F78095822384BB95
:1009B0000895413059F421B381E090E002C0880FDE
:1009C000991F3A95E2F7282B21BB089521B381E0C6
:1009D00090E002C0880F991F3A95E2F78095822334
:1009E00081BB0895823489F0833418F4813409F589
:1009F00005C0833489F08434E1F415C0613019F402
:100A00008FEF8ABB08951ABA0895613019F48FEFF9
:100A100087BB089517BA0895613019F48FEF84BB2E
:100A2000089514BA0895613019F48FEF81BB0895C9
:100A300011BA0895382F623429F1633420F46134F7
:100A400009F06AC006C06334B1F1643409F064C0CF
:100A50004BC0413059F42BB381E090E002C0880FC5
:100A6000991F3A95E2F7282B2BBB08952BB381E011
:100A700090E002C0880F991F3A95E2F78095822393
:100A80008BBB0895413059F428B381E090E002C057
:100A9000880F991F3A95E2F7282B28BB089528B3B1
:100AA00081E090E002C0880F991F3A95E2F78095A7
:100AB000822388BB0895413059F425B381E090E04A
:100AC00002C0880F991F3A95E2F7282B25BB08959D
:100AD00025B381E090E002C0880F991F3A95E2F7B4
:100AE0008095822385BB0895413059F422B381E07B
:100AF00090E002C0880F991F3A95E2F7282B22BB9D
:100B0000089522B381E090E002C0880F991F3A95C2
:100B1000E2F78095822382BB0895282F623461F02A
:100B2000633418F46134A9F405C0633439F06434D3
:100B300081F406C089B305C086B303C083B301C086
:100B400080B390E002C0959587952A95E2F7817071
:100B500008950895823489F0833418F4813409F5B6
:100B600005C0833489F08434E1F415C0613019F490
:100B70008FEF8BBB08951BBA0895613019F48FEF86
:100B800088BB089518BA0895613019F48FEF85BBBA
:100B9000089515BA0895613019F48FEF82BB089556
:100BA00012BA0895823461F0833418F4813469F400
:100BB00005C0833439F0843441F406C06BBB08951A
:100BC00068BB089565BB089562BB0895823461F0E7
:100BD000833418F4813471F405C0833439F08434DB
:100BE00049F406C089B3089586B3089583B3089580
:100BF00080B308950895382F6234A9F0633418F44F
:100C0000613489F505C06334C9F0643461F521C0ED
:100C10002BB381E090E002C0880F991F3A95E2F76C
:100C200028272BBB089528B381E090E002C0880FED
:100C3000991F3A95E2F7282728BB089525B381E04C
:100C400090E002C0880F991F3A95E2F7282725BB4C
:100C5000089522B381E090E002C0880F991F3A9571
:100C6000E2F7282722BB089587B1806C87B986B147
:100C7000876886B9089597B1907E982B97B9369A70
:100C8000349BFECF80E991E00197F1F724B135B1B3
:100C9000C901089597B1907E982B97B9089511B81E
:100CA00088E480B9089584EA86BF06B607FEFDCFC2
:100CB000089584EA86BF06B607FEFDCF089583B97E
:100CC00084E886BF06B607FEFDCF089584EC86BF94
:100CD00006B607FEFDCF83B1089584E886BF06B649
:100CE00007FEFDCF83B1089584E986BF06B604FCF4
:100CF000FDCF0895982F84EA86BF06B607FEFDCF84
:100D0000990F93B984E886BF06B607FEFDCF63B995
:100D100084E886BF06B607FEFDCF84E986BF06B627
:100D200004FCFDCF0895813009F455C0813020F0D6
:100D3000823009F003C19EC06230710578F06830DE
:100D4000710581F16034710581F181E060307807CF
:100D5000A9F16050744009F0F1C033C068307105EA
:100D600009F16930710540F46115710591F0613048
:100D7000710509F0E3C010C081E060307807F1F040
:100D800084E060307807E9F06034710509F0D6C07E
:100D90000CC083B78E7F02C083B7816083BF83B7E7
:100DA0008D7F08C083B78E7F02C083B7816083BF09
:100DB00083B7826083BF83B78B7F0BC083B78E7F7F
:100DC00002C083B7816083BF83B78D7F83BF83B742
:100DD000846083BF08956230710578F068307105D2
:100DE00099F16034710599F181E060307807A9F1DB
:100DF0006050744009F0A2C033C06830710521F121
:100E00006930710540F46115710591F0613071052B
:100E100009F094C010C081E060307807F1F084E000
:100E200060307807E9F06034710509F087C00FC0C1
:100E30008EB58E7F02C08EB581608EBD8EB58D7FE2
:100E40008EBD8EB58B7F14C08EB58E7F02C08EB5E1
:100E500081608EBD8EB58260F3CF8EB58E7F02C06D
:100E60008EB581608EBD8EB58D7F8EBD8EB5846052
:100E70008EBD08956230710568F068307105B1F17A
:100E800060327105B1F160347105E1F160387105CE
:100E9000E1F43BC06032710561F16132710558F4D3
:100EA00061307105E9F061307105B8F068307105A5
:100EB00009F044C01BC06038710539F16138710513
:100EC00020F460347105D1F51DC081E060307807F1
:100ED00011F16050744091F528C085B58E7F02C035
:100EE00085B5816085BD85B58D7F08C085B58E7F50
:100EF00002C085B5816085BD85B5826085BD85B53B
:100F00008B7F11C085B58E7F02C085B5816085BDA0
:100F100085B58D7F05C085B58E7F85BD85B5826021
:100F200085BD85B5846085BD089585B5816085BD25
:100F300085B5826085BD85B5846085BD08950E94B4
:100F400093060895813071F0813028F0823081F06D
:100F50008330D9F414C083B78F7E83BF83B7806298
:100F600083BF08958FB58F7B8FBD8FB5806805C017
:100F70008FB58F7E8FBD8FB580628FBD089585B58B
:100F80008F7E85BD85B5806285BD08951F93182F1E
:100F9000833018F4813010F504C0833009F07BC031
:100FA0005EC0213019F0223069F406C083B7806436
:100FB00083BF83B7886005C083B7806483BF83B76E
:100FC000877F83BFCB01BA0120E030E04FE753E4D5
:100FD0000E940B0E0E94350C6CBF5DC0213019F0D1
:100FE0002230F1F40DC08FB581608FBD8FB58D7F3C
:100FF0008FBD8EB588608EBD8EB58F7E8EBD10C0C4
:101000008FB58E7F8FBD8FB582608FBD8EB5877F88
:101010008EBD8EB580618EBD80E29EE497BD86BD9B
:10102000113019F01230B9F50DC0CB01BA0120E032
:1010300030E04FE753E40E940B0E0E94350C7BBD5D
:101040006ABD29C0CB01BA0120E030E04FE753E48C
:101050000E940B0E0E94350C79BD68BD1CC021306A
:1010600019F0223069F406C085B5806485BD85B568
:10107000886005C085B5806485BD85B5877F85BDE1
:10108000CB01BA0120E030E04FE753E40E940B0EA1
:101090000E94350C63BD812F0E94A2071F91089505
:1010A000813099F0813028F08230E1F0833091F581
:1010B00026C0CB01BA0120E030E04FE753E40E94A4
:1010C0000B0E0E94350C6CBF0895CB01BA0120E0D5
:1010D00030E04FE753E40E940B0E0E94350C7BBDBD
:1010E0006ABD0895CB01BA0120E030E04FE753E438
:1010F0000E940B0E0E94350C79BD68BD0895CB018E
:10110000BA0120E030E04FE753E40E940B0E0E944A
:10111000350C63BD08950895089508950895982F96
:10112000862F83708C5C692F0E947A0680EA9FE08C
:101130000197F1F70895EF92FF920F931F93CF93CA
:10114000DF93EC01E62E6AE070E00E94B012182FE7
:10115000E82FF0E0E057FF4F808163E00E948F08A6
:101160001093B601CE016AE070E00E94B012062F23
:10117000F72E862F972F6AE070E00E94B012182F8A
:10118000EE2039F4CA30D10520F4882311F480E030
:1011900005C0E12FF0E0E057FF4F808162E00E9440
:1011A0008F081093B501802F9F2D6AE070E00E9498
:1011B000B012062FF72E862F972F6AE070E00E945C
:1011C000B012182FEE2039F4C436D10520F488234C
:1011D00011F480E005C0E12FF0E0E057FF4F80817F
:1011E00061E00E948F081093B401802F9F2D6AE068
:1011F00070E00E94B012CB016AE070E00E94B01271
:10120000182FEE2039F4C85ED34020F4112311F4D6
:1012100080E005C0E12FF0E0E057FF4F808160E003
:101220000E948F081093B301DF91CF911F910F910E
:10123000FF90EF90089560E00E949B080895262F8C
:1012400064E00E94A312692FE92FFF27E7FDF095C4
:10125000ED54FE4F8081222311F0806801C08F770A
:101260000E948F0808950F931F93082F10E0011715
:1012700019F48FEF602F02C080E0612F0E948F0869
:101280001F5F1430A1F71F910F910895CF93DF9343
:10129000C0E0D0E080E06C2F0E948F08FE01ED548A
:1012A000FE4F10822196C430D105A1F7DF91CF9176
:1012B0000895982F862F83708C5D692F0E947A067F
:1012C00080EA9FE00197F1F708951F93CF93DF9392
:1012D000883008F087E0182F1295107FC0E0D0E02A
:1012E000FE01E954FE4F8081812B808380816C2F29
:1012F0000E9459092196C430D10591F7DF91CF9111
:101300001F9108958091B701877F60E00E9459097D
:1013100008958091B701886060E00E94590908959E
:10132000CF93DF93C0E0D0E0FE01E954FE4F80810F
:101330008E7F808380816C2F0E9459092196C43052
:10134000D10591F7DF91CF910895CF93DF93C0E05E
:10135000D0E0FE01E954FE4F80818160808380816E
:101360006C2F0E9459092196C430D10591F7DF9165
:10137000CF91089584E360E00E947A0683E090E0D4
:10138000FC01E954FE4F1082FC01ED54FE4F108227
:1013900001972FEF8F3F920799F708950E94A90AAE
:1013A0000895882349F4683038F4E62FF0E0E554D6
:1013B000FE4F40830E943B0B0895382F603458F550
:1013C000262F2770E82FF0E083E0EE0FFF1F8A95AD
:1013D000E1F7E20FF11DE554FE4FE0816695669559
:1013E0006695442351F081E090E002C0880F991F78
:1013F0006A95E2F74E2F482B0AC081E090E002C0C8
:10140000880F991F6A95E2F7482F40954E23832F46
:10141000622F0E94D109089540E00E94DD090895DD
:1014200041E00E94DD0908950F931F93CF93DF934E
:101430008823A1F48B01C0E0D0E0F8018081FE0197
:10144000E554FE4F808380E06C2FF80141918F01BD
:101450000E943B0B2196C830D10579F7DF91CF91DF
:101460001F910F910895FF920F931F93CF93DF93D6
:10147000F82EC0E0D0E090E08C0193E0000F111F47
:101480009A95E1F7F801EC0FFD1FE554FE4F10822D
:101490008F2D6C2F40E00E943B0B2196C830D10568
:1014A00089F7DF91CF911F910F91FF9008950E94CE
:1014B0002E0C80E061E00E94A20A80E060E00E94C1
:1014C000B00A80E060E00E94BE0A80E06FE00E9407
:1014D000A90A80E067E00E94B70A80E00E94330A10
:1014E000089547E050E0E1E0F0E0682F70E0C79831
:1014F000CF01042E02C0880F991F0A94E2F78623B9
:101500009723042E02C0959587950A94E2F78823C5
:1015100011F0C59A01C0C598C79A415050408FEF4D
:101520004F3F580721F708951F93142F882341F444
:10153000C098862F0E94710A812F0E94710AC09A5A
:101540001F910895462F623018F46CE00E94940AAF
:101550000895462F603118F46AE00E94940A0895B5
:10156000462F623018F46FE00E94940A0895462FC7
:10157000683018F46BE00E94940A0895462F69E0E1
:101580000E94940A0895462FE82FF0E093E0EE0FB2
:10159000FF1F9A95E1F7E555FE4F608361E00E94D9
:1015A000940A0895462FE82FF0E023E0EE0FFF1F86
:1015B0002A95E1F7E555FE4F618362E00E94940AA7
:1015C0000895462FE82FF0E033E0EE0FFF1F3A9525
:1015D000E1F7E355FE4F608363E00E94940A0895AB
:1015E000462FE82FF0E053E0EE0FFF1F5A95E1F78A
:1015F000E555FE4F638364E00E94940A0895462FE8
:10160000E82FF0E063E0EE0FFF1F6A95E1F7E15588
:10161000FE4F408365E00E94940A0895462FE82F0C
:10162000F0E073E0EE0FFF1F7A95E1F7E555FE4F0E
:10163000658366E00E94940A0895462FE82FF0E043
:10164000A3E0EE0FFF1FAA95E1F7E555FE4F668375
:1016500067E00E94940A0895462FE82FF0E0B3E077
:10166000EE0FFF1FBA95E1F7E555FE4F678368E07F
:101670000E94940A08956330E1F0643028F46130E8
:1016800081F0623090F409C06530D9F06530A8F07F
:101690006630D9F0673001F51CC0642F0E94C30A80
:1016A0000895642F0E94D20A0895642F0E94E10ACF
:1016B0000895642F0E94F00A0895642F0E94FF0A83
:1016C0000895642F0E940E0B0895642F0E941D0B35
:1016D0000895642F0E942C0B0895E82FF0E083E01A
:1016E000EE0FFF1F8A95E1F7E555FE4F80810895C3
:1016F000E82FF0E093E0EE0FFF1F9A95E1F7E55534
:10170000FE4F81810895E82FF0E023E0EE0FFF1FE8
:101710002A95E1F7E355FE4F80810895E82FF0E028
:1017200033E0EE0FFF1F3A95E1F7E555FE4F838159
:101730000895E82FF0E043E0EE0FFF1F4A95E1F730
:10174000E155FE4F80810895E82FF0E053E0EE0F61
:10175000FF1F5A95E1F7E555FE4F85810895E82F63
:10176000F0E063E0EE0FFF1F6A95E1F7E555FE4FED
:1017700086810895E82FF0E073E0EE0FFF1F7A9561
:10178000E1F7E555FE4F87810895633081F16430BC
:1017900038F46130C9F0E82FF0E0623000F50CC099
:1017A0006530D9F1653070F1663009F441C06730B9
:1017B00009F449C080E0089553E0EE0FFF1F5A95E9
:1017C000E1F7E555FE4F27C0E82FF0E043E0EE0FCC
:1017D000FF1F4A95E1F7E555FE4F8181089533E0FB
:1017E000EE0FFF1F3A95E1F7E355FE4F14C0E82FC7
:1017F000F0E023E0EE0FFF1F2A95E1F7E555FE4FDD
:1018000083810895E82FF0E093E0EE0FFF1F9A9593
:10181000E1F7E155FE4F80810895E82FF0E083E085
:10182000EE0FFF1F8A95E1F7E555FE4F858108957C
:10183000E82FF0E0B3E0EE0FFF1FBA95E1F7E555B2
:10184000FE4F86810895E82FF0E0A3E0EE0FFF1F22
:10185000AA95E1F7E555FE4F87810895BD9ABF9A95
:10186000B89AC598C798C0980895EF92FF920F93C1
:101870001F937B018C0120E030E040E05FE40E9498
:10188000B10F88238CF0C801B70120E030E040E0C0
:101890005FE40E94AD0D0E94E10F9B01AC0120505E
:1018A00030404040504806C0C801B7010E94E10FD7
:1018B0009B01AC01B901CA011F910F91FF90EF90FC
:1018C0000895A0E0B0E0E7E6FCE00C94D012DC0163
:1018D0002B01FA019C91923008F439C1EB01888107
:1018E000823008F433C1943069F4843009F02FC198
:1018F00011969C9111978981981709F428C1A1EA42
:10190000B0E025C1843009F421C18230A9F49230BD
:1019100009F01DC19A01AD0188E0EA010990AE010C
:10192000E90109929E018150C1F7E2018981119676
:101930009C918923818308C1923009F407C11296D2
:101940002D903C901397EB018A819B811496AD906A
:10195000BD90CD90DC901797EC80FD800E811F81AB
:101960009101281B390BB90137FF04C0662777277F
:10197000621B730B603271050CF061C01216130606
:101980006CF537014801062E04C09694879477942D
:1019900067940A94D2F721E030E040E050E004C0C0
:1019A000220F331F441F551F6A95D2F72150304034
:1019B000404050402E213F21402351232115310525
:1019C0004105510521F021E030E040E050E079018F
:1019D0008A01E628F728082919293CC0232BD1F1D0
:1019E000260E371E35014601062E04C096948794B4
:1019F000779467940A94D2F721E030E040E050E019
:101A000004C0220F331F441F551F6A95D2F721507F
:101A10003040404050402A213B214C215D2121157E
:101A200031054105510521F021E030E040E050E072
:101A300059016A01A628B728C828D9280BC08215E1
:101A400093052CF01C01AA24BB24650103C0EE24DD
:101A5000FF24870111969C91D20111968C919817C1
:101A600009F445C0992339F0A80197012A193B09C7
:101A70004C095D0906C0A60195012E193F09400BCE
:101A8000510B57FD08C01182338222822483358393
:101A9000468357831DC081E0818333822282882759
:101AA0009927DC01821B930BA40BB50B84839583D0
:101AB000A683B7830DC0220F331F441F551F2483F5
:101AC00035834683578382819381019793838283F1
:101AD0002481358146815781DA01C9010197A10925
:101AE000B1098F5F9F4FAF4FBF4328F30BC0918366
:101AF00033822282EA0CFB1C0C1D1D1DE482F58240
:101B00000683178383E08083248135814681578152
:101B100057FF1AC0C901AA2797FDA095BA2F817057
:101B20009070A070B0705695479537952795822B89
:101B3000932BA42BB52B84839583A683B7838281B3
:101B40009381019693838283DF0101C0D201CD018D
:101B5000CDB7DEB7E2E10C94EC12A0E2B0E0E3EB2B
:101B6000FDE00C94DC1269837A838B839C832D8344
:101B70003E834F835887E9E0EE2EF12CEC0EFD1EDC
:101B8000CE010196B7010E94D2118E010F5E1F4F48
:101B9000CE010596B8010E94D2118A8991E0892769
:101BA0008A8BC701B801AE01475E5F4F0E94610C8E
:101BB0000E94FD10A096E6E00C94F812A0E2B0E0BE
:101BC000E4EEFDE00C94DC1269837A838B839C83C2
:101BD0002D833E834F835887F9E0EF2EF12CEC0ED6
:101BE000FD1ECE010196B7010E94D2118E010F5E3B
:101BF0001F4FCE010596B8010E94D211C701B8014E
:101C0000AE01475E5F4F0E94610C0E94FD10A096DE
:101C1000E6E00C94F812A0E2B0E0E1E1FEE00C9402
:101C2000D01269837A838B839C832D833E834F8379
:101C30005887CE010196BE01675F7F4F0E94D21187
:101C4000CE010596BE016F5E7F4F0E94D21199852D
:101C5000923088F089898230C8F0943019F482304B
:101C600051F404C0843029F4923081F481EA90E088
:101C7000C6C0923049F420E09A858A89981321E001
:101C80002A87CE010996BBC0823049F420E09A85AC
:101C90008A89981321E02A8BCE014196B0C02D8409
:101CA0003E844F8458886D887E888F88988CEE2477
:101CB000FF248701AA24BB24650140E050E060E0D6
:101CC00070E0E0E0F0E0C10181709070892BE9F0F4
:101CD000E60CF71C081D191D9A01AB012A0D3B1DCE
:101CE0004C1D5D1D80E090E0A0E0B0E0E614F7043C
:101CF0000805190520F481E090E0A0E0B0E0BA0109
:101D0000A901480F591F6A1F7B1FAA0CBB1CCC1CC2
:101D1000DD1C97FE08C081E090E0A0E0B0E0A82ABA
:101D2000B92ACA2ADB2A3196E032F10549F0660C5D
:101D3000771C881C991C5694479437942794C3CFDA
:101D4000FA85EA892B893C898B859C85280F391F68
:101D50002E5F3F4F17C0CA0181709070892B61F0D0
:101D600016950795F794E79480E090E0A0E0B0E83E
:101D7000E82AF92A0A2B1B2B7695679557954795E4
:101D80002F5F3F4F77FDE7CF0CC0440F551F661FF5
:101D9000771F17FD4160EE0CFF1C001F111F215023
:101DA0003040403090E0590790E0690790E47907AF
:101DB00060F32B8F3C8FDB01CA018F779070A0708E
:101DC000B07080349105A105B10561F447FD0AC0EA
:101DD000E114F1040105110529F0405C5F4F6F4FDC
:101DE0007F4F40781A8EFE1711F081E08A8F4D8F59
:101DF0005E8F6F8F78A383E0898FCE0149960E9412
:101E0000FD10A096E2E10C94EC12A8E1B0E0EBE04A
:101E1000FFE00C94D81269837A838B839C832D8393
:101E20003E834F835887B9E0EB2EF12CEC0EFD1E5C
:101E3000CE010196B7010E94D2118E010F5E1F4F95
:101E4000CE010596B8010E94D2112985223008F4EE
:101E50007EC03989323010F4B8017CC08A859A89F5
:101E600089278A87243011F0223031F4231709F0B2
:101E70006EC061EA70E06EC0343039F41D861E8693
:101E80001F86188A1C861B8604C0323021F484E029
:101E90008987B7015FC02B853C858B899C89281B6E
:101EA000390B3C872B87ED84FE840F851889AD881C
:101EB000BE88CF88D88CEA14FB040C051D0540F4BD
:101EC000EE0CFF1C001F111F215030403C872B8758
:101ED00020E030E040E050E080E090E0A0E0B0E4BE
:101EE00060E070E0EA14FB040C051D0540F0282BAF
:101EF000392B4A2B5B2BEA18FB080C091D09B695F8
:101F0000A79597958795EE0CFF1C001F111F6F5F1B
:101F10007F4F6F31710531F7DA01C9018F7790700A
:101F2000A070B07080349105A105B10561F427FD62
:101F30000AC0E114F1040105110529F0205C3F4FAE
:101F40004F4F5F4F20782D873E874F87588BBE01BC
:101F5000675F7F4FCB010E94FD106896EAE00C940A
:101F6000F412A8E1B0E0E7EBFFE00C94DC12698327
:101F70007A838B839C832D833E834F83588789E0AC
:101F8000E82EF12CEC0EFD1ECE010196B7010E9449
:101F9000D2118E010F5E1F4FCE010596B8010E942F
:101FA000D2118985823040F08989823028F0C701BA
:101FB000B8010E944A1201C08FEF6896E6E00C94C7
:101FC000F812ACE0B0E0E7EEFFE00C94E0126983B9
:101FD0007A838B839C83CE010196BE016B5F7F4F1A
:101FE0000E94D2118D81823061F1823050F18430B3
:101FF00021F48E81882351F12EC02F81388537FD41
:1020000020C06E812F3131051CF06623F9F023C00A
:102010008EE190E0821B930B29853A854B855C8588
:1020200004C056954795379527958A95D2F766232C
:10203000B1F050954095309521953F4F4F4F5F4FF0
:102040000EC020E030E040E050E009C02FEF3FEF4D
:102050004FEF5FE704C020E030E040E050E8B90116
:10206000CA012C96E2E00C94FC12A8E0B0E0EBE38D
:10207000F0E10C94D8127B018C016115710581058A
:10208000910519F482E0898360C083E089838EE141
:10209000C82ED12CDC82CB82ED82FE820F83188782
:1020A000C801B7010E94AE10FC013197F7FF3BC099
:1020B000222733272E1B3F0B57016801022E04C035
:1020C000D694C794B794A7940A94D2F740E050E00E
:1020D00060E070E081E090E0A0E0B0E004C0880F34
:1020E000991FAA1FBB1F2A95D2F70197A109B10911
:1020F0008E219F21A023B1230097A105B10521F0D6
:1021000041E050E060E070E04A295B296C297D29BC
:102110004D835E836F8378878EE190E08E1B9F0BEB
:102120009C838B8312C0309781F00E2E04C0EE0C7E
:10213000FF1C001F111F0A94D2F7ED82FE820F834D
:102140001887CE1ADF0ADC82CB821A82CE01019672
:102150000E94FD102896EAE00C94F412EF92FF9290
:102160000F931F937B018C0180E0E81680E0F80656
:1021700081E0080780E0180788F48FEFE816F10483
:102180000105110531F028F088E090E0A0E0B0E012
:1021900017C080E090E0A0E0B0E012C080E0E81658
:1021A00080E0F80680E0080781E0180728F088E161
:1021B00090E0A0E0B0E004C080E190E0A0E0B0E0FA
:1021C00020E230E040E050E0281B390B4A0B5B0B6B
:1021D00004C016950795F794E7948A95D2F7F7010E
:1021E000E755FF4F8081281B310941095109C90179
:1021F0001F910F91FF90EF900895DF92EF92FF9261
:102200000F931F93FC01E480F58006811781D18034
:102210008081823048F480E090E0A0E1B0E0E82ADC
:10222000F92A0A2B1B2BA5C0843009F49FC08230E9
:1022300021F4EE24FF24870105C0E114F104010517
:10224000110519F4E0E0F0E096C0628173819FEF20
:10225000623879070CF05BC022E83FEF261B370B92
:102260002A3131052CF020E030E040E050E02AC077
:10227000B801A701022E04C076956795579547953A
:102280000A94D2F781E090E0A0E0B0E004C0880FAB
:10229000991FAA1FBB1F2A95D2F70197A109B1095F
:1022A0008E219F21A023B1230097A105B10521F024
:1022B00081E090E0A0E0B0E09A01AB01282B392B3F
:1022C0004A2B5B2BDA01C9018F779070A070B07038
:1022D00080349105A105B10539F427FF09C0205CC0
:1022E0003F4F4F4F5F4F04C0215C3F4F4F4F5F4FF9
:1022F000E0E0F0E02030A0E03A07A0E04A07A0E4E8
:102300005A0710F0E1E0F0E079018A0127C0603857
:10231000710564F5FB01E158FF4FD801C7018F77C4
:102320009070A070B07080349105A105B10539F4AA
:10233000E7FE0DC080E490E0A0E0B0E004C08FE3D1
:1023400090E0A0E0B0E0E80EF91E0A1F1B1F17FF87
:1023500005C016950795F794E794319687E0169592
:102360000795F794E7948A95D1F705C0EE24FF24EA
:102370008701EFEFF0E06E2F679566276795902F46
:102380009F77D794DD24D7948E2F8695492F462B9F
:10239000582F5D29B701CA011F910F91FF90EF904F
:1023A000DF900895FC01DB01408151812281622F81
:1023B0006F7770E0221F2227221F9381892F880FB9
:1023C000822B282F30E0991F9927991F11969C93F3
:1023D000119721153105A9F54115510561057105C3
:1023E00011F482E037C082E89FEF13969C938E939E
:1023F00012979A01AB0167E0220F331F441F551F4C
:102400006A95D1F783E08C930DC0220F331F441FD0
:10241000551F12968D919C911397019713969C933B
:102420008E931297203080E0380780E0480780E4E0
:10243000580758F314962D933D934D935C9317973B
:1024400008952F3F310579F4411551056105710556
:1024500019F484E08C93089564FF03C081E08C93A9
:1024600012C01C9210C02F57304013963C932E93ED
:10247000129783E08C9387E0440F551F661F771FE8
:102480008A95D1F7706414964D935D936D937C9308
:10249000179708951F93DC01FB019C91923008F47B
:1024A00047C08081823008F443C0943051F41196C3
:1024B0001C91843099F58181682F70E0611B71094E
:1024C0003FC0843021F0923031F48230B9F1818103
:1024D000882389F12DC011961C9111978230F1F05B
:1024E00081811817D9F412962D913C91139782810E
:1024F00093818217930794F028173907BCF014963C
:102500008D919D910D90BC91A02D248135814681A6
:102510005781281739074A075B0718F4112341F040
:102520000AC082179307A407B50740F4112319F0D6
:1025300061E070E005C06FEF7FEF02C060E070E027
:10254000CB011F91089587FB082E062687FD8195F4
:1025500067FD619519D00EF4919507FC819508955A
:10256000AA1BBB1B51E107C0AA1FBB1FA617B707B9
:1025700010F0A61BB70B881F991F5A95A9F78095D5
:102580009095BC01CD010895991B79E004C0991F75
:10259000961708F0961B881F7A95C9F780950895BD
:1025A0002F923F924F925F926F927F928F929F9263
:1025B000AF92BF92CF92DF92EF92FF920F931F9351
:1025C000CF93DF93CDB7DEB7CA1BDB0B0FB6F89402
:1025D000DEBF0FBECDBF09942A88398848885F8442
:1025E0006E847D848C849B84AA84B984C884DF80B3
:1025F000EE80FD800C811B81AA81B981CE0FD11D97
:102600000FB6F894DEBF0FBECDBFED010895F8946C
:02261000FFCFFA
:102612004444487048444400446C54444444440094
:10262200444464544C4444004444447C4444440080
:102632003738392F3435362A3132332D23303D2B7A
:102642003F065B4F666D7D077F6F777C395E7971E0
:10265200000000000000000000000102020303036A
:102662000304040404040404040505050505050522
:102672000505050505050505050606060606060601
:1026820006060606060606060606060606060606E8
:1026920006060606060606060607070707070707D1
:1026A20007070707070707070707070707070707B8
:1026B20007070707070707070707070707070707A8
:1026C2000707070707070707070707070707070798
:1026D2000707070707070707070808080808080881
:1026E2000808080808080808080808080808080868
:1026F2000808080808080808080808080808080858
:102702000808080808080808080808080808080847
:102712000808080808080808080808080808080837
:102722000808080808080808080808080808080827
:102732000808080808080808080808080808080817
:102742000808080808080808080808080808080807
:0A2752000808080808080808080035
:00000001FF
